:020000040800F2
:10000000B00500203D2A0008C5280008C7280008C0
:10001000C9280008CB280008CD28000800000000EF
:10002000000000000000000000000000CF280008D1
:10003000D128000800000000D3280008D5280008B7
:100040005D2A0008612A0008652A0008692A00085C
:100050006D2A0008712A0008752A0008792A00080C
:100060007D2A0008812A0008852A0008892A0008BC
:100070008D2A0008912A0008952A0008992A00086C
:100080009D2A0008A12A0008A52A0008A92A00081C
:10009000AD2A0008B12A0008B52A0008B92A0008CC
:1000A000D9280008BD2A0008C12A0008C52A00086E
:1000B000DF280008E5280008C92A0008CD2A000822
:1000C000D12A0008D52A0008D92A0008DD2A00080C
:1000D000E12A0008E52A0008E92A0008ED2A0008BC
:1000E000F12A0008F52A0008F92A0008FD2A00086C
:1000F000012B0008052B0008092B00080D2B000818
:10010000112B0008152B0008EB280008192B0008FC
:100110001D2B0008212B0008252B0008292B000887
:100120002D2B0008312B0008352B0008392B000837
:100130003D2B0008412B0008452B0008492B0008E7
:100140004D2B0008512B0008552B0008592B000897
:100150005D2B0008612B0008652B0008692B000847
:100160006D2B0008712B0008752B0008792B0008F7
:100170007D2B0008812B0008852B00080000000063
:10018000892B00088D2B0008912B0008952B000867
:10019000992B00089D2B0008A12B0008A52B000817
:1001A000A92B0008AD2B0008B12B000838B50400BE
:1001B00001D1012032BD00F063F918B900F030FC24
:1001C00000F01AFE3AE090F83D10012901D001201C
:1001D0007047022180F83D100168CA6842F00102B0
:1001E000CA600168DFF86022914218BFB1F1804F08
:1001F00017D0DFF8582291421CBFDFF854329942E1
:100200000FD0DFF8502291421CBFDFF84C329942E8
:1002100007D0DFF8482291421CBFDFF844329942F0
:1002200005D1896801F00701062905D001680A682F
:10023000084642F001020260002070470220687008
:10024000211D206800F0F0FB0120A8720121A97097
:10025000E87029716871A971E87129726872697012
:10026000002032BD05460C462868002200F067BD1C
:100270002868C16821F0040170472868C16821F02E
:100280000201704728680022214600F058BD38B5A9
:10029000040001D1012032BD00F0F2F818B900F0DD
:1002A000BFFB00F07BFEC9E710B5044604F13E0039
:1002B00009B9027807E0042908BF427803D0082969
:1002C0000CBF8278C278012A01D0012010BD11B97B
:1002D000022202700AE0042902D10222427005E0E3
:1002E000082907BF022282700223C37020680122FE
:1002F00000F025FD00F02BF818BF884200F02EF822
:1003000018BFB0F1804F12D000F01DF81CBFDFF80D
:10031000403198420BD000F012F818BF884206D046
:1003200000F069F81CBFDFF83821904203D100F0DB
:100330005DF802D0206800F07AF8002010BDDFF8E8
:10034000142190427047DFF80421904270472068E2
:10035000DFF8F420DFF800119042704703D1436CBE
:1003600043F40043436420689042704770B5FFF740
:1003700079FF00F028F81CBFDFF8DC60B04206D13E
:10038000036A134204BF036A0B4200F056F800F000
:1003900016F804BF006A084200F01EF814B90121E3
:1003A00001700AE0042C02D10121417005E0082C03
:1003B00007BF012181700122C270002070BD286832
:1003C000036A134270472868DFF87C3040F24441EA
:1003D00041F211129842704705D129680868400817
:1003E0000A464000106005F13E007047806800F04A
:1003F0000700062870471949884270472068C2687C
:1004000042F0100270472068C26842F00202704752
:100410002068C26842F0080270472068C26842F053
:10042000040270470446002504F13E00704701684D
:10043000024641F001011160704703D1436C23F47F
:100440000043436470470000000001400004004086
:1004500000080040000C0040000401400040014042
:100460000018004038B5040001D1012032BD00F071
:1004700007F818B900F0D4FA00F091FDFFF7DEBEDE
:1004800004F13C0568787047C2600122206800F0E2
:1004900056BC2868016A41F211121142704738B502
:1004A000FFF7C0FF11B9027803790AE0042902D1ED
:1004B0004278437905E0082907BF82788379C278BA
:1004C000C379012A08BF012B01D0012032BD21B917
:1004D00002220270022303711EE0042906D10222C7
:1004E000427002234371FFF798FF17E0082906D1F5
:1004F0000222827002238371FFF78AFF0EE002223C
:10050000C2700223C371080006D00429EBD0082969
:10051000F2D00C2924D026E0FFF775FFFFF7B4FFD7
:1005200000F02FF818BFB0F1804F14D000F025F87C
:100530001CBFDFF8102190420DD000F01AF81CBF4C
:10054000DFF8FC20904206D0FFF755FF1CBFDFF814
:10055000F820904209D1FFF749FF08D0206804E055
:10056000FFF74CFFDAE7012501E0FFF760FF2846BF
:1005700032BDDFF8D81088427047DFF8D4108842C7
:1005800070472068DFF8CC108842704770B5064687
:100590000C460025200006D0042C1AD0082C1CD0B4
:1005A0000C2C1FD023E03068FFF768FEC1600022EA
:1005B0003068FFF769FE3068FFF76CFF02BF006A22
:1005C00040F24441084200F030F894B900F015F8C8
:1005D00011E03068FFF74DFEE8E73068C16821F0B0
:1005E0000801E3E73068C16821F01001DEE701256A
:1005F00001E000F007F8284670BD012101700122DA
:1006000002717047042C04D1012141700122427112
:100610007047082C04D1012181700122827170473A
:100620000121C1700122C271704705D13068016893
:10063000490802464900116006F13E00704700007B
:10064000000401400008004000180040000C004079
:10065000000400400000014010B504462068016914
:100660008A0715D5C1688A0712D56FF002010161AA
:1006700001222277806910F0030F204602D000F09B
:10068000E6FC03E001F086F800F087F80020207710
:10069000206801694A0715D5C1684A0712D56FF06D
:1006A0000401016102222277806910F4407F204614
:1006B00002D000F0CCFC03E001F06CF800F06DF823
:1006C00000202077206801690A0715D5C1680A074C
:1006D00012D56FF00801016104222277C06910F081
:1006E000030F204602D000F0B2FC03E001F052F804
:1006F00000F053F80020207720680169CA0615D55C
:10070000C168CA0612D56FF0100101610822227774
:10071000C06910F4407F204602D000F098FC03E04E
:1007200001F038F800F039F80020207720680169DE
:10073000CA0708D5C168CA0705D56FF00101016174
:10074000204601F028F8206801690A0608D5C1682A
:100750000A0605D56FF080010161204601F01CF802
:10076000206801694A0608D5C1684A0605D56FF0B8
:1007700040010161204601F010F8206801698A06F5
:100780000AD5C1688A0607D56FF0200101612046AD
:10079000BDE8104001F002B810BD204600F0FFBFD8
:1007A000F8B500F0D8F801D10220F2BD012084F89C
:1007B0003C007AB9F36872683168206800F02DFA5D
:1007C0002168886920F00C0088618A69B06802435A
:1007D0008A615DE0042A10D1F3687268316820688C
:1007E00000F073FA2068816921F4406181618169B8
:1007F000B26841EA022181614AE0082A21D12168D8
:10080000F068726833681C311B024F6827F48077E8
:100810004F6003F420630F68D1F804C0BF0842EAB8
:10082000870260F307122CF420600A6003434B60D8
:10083000086820F00C0008600A68B06802430A608B
:1008400026E00C2A23D12068F168726833681C30D6
:100850001B03476827F48057476003F42043076869
:10086000D0F804C027F4407747EA022761F30F3736
:100870002CF4204107600B434360016821F4406180
:1008800001600268B16842EA0122026000E00125CD
:1008900000F001F8F2BD002084F83C0028467047C3
:1008A00070B500F058F801D1022070BD012084F825
:1008B0003C0032B1042A15D0082A25D00C2A34D0A5
:1008C00045E0206800F0FBF82168886940F00800E6
:1008D0008861886920F0040088618A693069024370
:1008E0008A6135E0206800F016F92068816941F4DA
:1008F00000618161816921F480618161816932696E
:1009000041EA0221816123E0206800F034F9216886
:10091000C86940F00800C861C86920F00400C861D7
:10092000CA6930690243CA6112E0206800F052F9D6
:100930002068C16941F40061C161C16921F480612D
:10094000C161C169326941EA0221C16100E001254A
:10095000FFF7A1FF70BD0446002594F83C00012874
:100960000E46704770B5064606F13C05002428780F
:10097000012801D1022070BD0120287002226A7076
:10098000DFF8F80232689368034093600868020059
:1009900018BF102830D0202818BF30282CD040286D
:1009A00026D0502819D060281BD0702806D0B0F56A
:1009B000805F27D0B0F5005F07D022E000F02BF871
:1009C0003068816841F0770105E000F024F8306874
:1009D000816841F48041816014E000F018F85021F2
:1009E0000BE0CA684968306800F085F9602104E0CE
:1009F00000F00DF8402100E00146306800F08DF96C
:100A000000E001240120687000F00AF870BDCA6897
:100A1000496830684AE1CB684A688968306884E18F
:100A20000021297020467047F0B50568944C954B1D
:100A3000954E964FDFF858C2A04218BFB0F1804FD4
:100A400007D0604518BFB84203D0B04218BF9842E3
:100A50000DD14A6825F070051543A04218BFB0F1CA
:100A6000804F17D060451CBFB842B04212D09842A8
:100A70001CBF884A90420DD0874EB0421CBF874AA7
:100A8000904207D0864EB0421FBF864A9042864EA3
:100A9000B04203D1CA6825F4407515434A6925F070
:100AA000800515430560A0428D68C5620A688262B0
:100AB00012BF98420969016301224261F0BDF0B59D
:100AC000026A6F4F520852000262066A44688569E2
:100AD0000B688A6825F0730526F002061D4316434D
:100AE000684BB84218BF984207D1CA6826F008067A
:100AF0001643B84226F0040601D0984205D14B694E
:100B00008A6924F440741C43144344608561496835
:100B100041630662F0BDF0B5026A594E22F0100240
:100B20000262B042056A436884690A6824F4E644B4
:100B300044EA02248A6825F0200545EA0215514A54
:100B400018BF904208D1CF6825F0800545EA071507
:100B5000B04225F0400501D0904206D14E698A6925
:100B600023F44063164343EA860343608461496883
:100B700081630562F0BDF0B5026A22F48072026200
:100B8000056A4368C4698E680A6825F4007524F014
:100B9000730445EA06251443394E3A4AB04218BF59
:100BA000904208D1CF6825F4006545EA0725B04298
:100BB00025F4806501D0904206D14E698A6923F4FC
:100BC0004053164343EA06134360C4614968C16356
:100BD0000562F0BD70B5026A294E22F480520262AD
:100BE000B042046A4268C3690D6823F4E64343EAED
:100BF00005238D6824F4005444EA05341CBF214DBC
:100C0000A84204D14D6922F4804242EA8512426032
:100C1000C36149680164046270BDF0B5046A184E8E
:100C2000640864000462B0428469056A18BFB0F1C8
:100C3000804F11D0164EB0421CBF144FB8420BD09B
:100C4000114EB0421CBF0F4FB84205D0114EB042FA
:100C50001CBF134FB84203D1A40842EA840201E04A
:100C600044F0010263F3071225F00A0501F00A01BE
:100C7000826129430162F0BD000000008800FFFF8F
:100C80000000014000040140000C0040000800404A
:100C90000004004000400140004401400048014081
:100CA00000180040001C00400020004010B5036AFE
:100CB000046A64086400046223F00A03846924F06F
:100CC000F00444EA0214846144E030B5046A24F07C
:100CD0001004046209018469056A24F4407444EA3A
:100CE000022463F30F3425F0A00501F0A001846114
:100CF0002943016230BD10B5036A23F0100303627B
:100D00008369046A23F4704343EA023324F0A004A5
:100D1000836144EA0114046210BD826822F070020B
:100D2000114341F007018160704710B5846824F4D5
:100D30007F442143114341EA0321816010BD10B576
:100D400001F01F01036A01248C40A343036202FAED
:100D500001F1036A1943016210BD0EE002684368A5
:100D6000024408305FEAC37C44BF4B445B1E52F828
:100D700004CB43F804CB091FF9D150F8041B002918
:100D8000ECD1704781B00020009000227B48416880
:100D900041F480414160416801F480410091009933
:100DA0000092036843F080530360006800F08050B5
:100DB0000090009801B0704710B586B000F098F828
:100DC00021686F48814215D100226E480092416926
:100DD00041F400514161416901F4005100910099D1
:100DE0000092442100F08AF8032205210591049223
:100DF00000F0B6F806B010BD10B586B000F078F877
:100E000021686048B1F1804F27D10021009102692B
:100E100042F0010202610022016901F0010100912A
:100E2000009900922021036843F00103036002222D
:100E3000006800F00100009000985448019102926F
:100E4000002103910491012100F089F80022002182
:100E50001C2000F0BFFC1C2046E04D4A914211D1FD
:100E6000002100910421026942F002020261002285
:100E7000006900F00200009000981D2000F0AAFC1C
:100E80001D2031E0434A914211D1002100910321FC
:100E9000026942F0080202610022006900F00800C5
:100EA00000900098322000F095FC32201CE03A4A75
:100EB00091421BD100210091426942F4803242618B
:100EC0000022416901F480310091009900922021B3
:100ED00000F014F80491032100F041F800220221EF
:100EE000182000F077FC182000F091FC06B010BD2F
:100EF00004461422002101A800F0B4BC036843F0AA
:100F0000100303600222006800F0100000900098B7
:100F10001D480191029200210391704710B586B0DF
:100F2000FFF7E6FF21681A4B1848164A994203D189
:100F300000F019F8C02205E0164B99420DD100F0DF
:100F400012F80122009901920223002203920492D6
:100F500002930222059200F003F806B010BD05913D
:100F600001A900F089BC00210091136843F001033E
:100F70001360116801F00101009170474038024090
:100F800000340140303802400010024000000240AE
:100F900000040040000C00400040014070477047D2
:100FA00038B5DFF85047F82100F016F8012306E0C5
:100FB00038B5DFF84047FA2100F00EF80A23032283
:100FC0002146DFF8340700F0CEFD2846BDE8384062
:100FD0000022022100F04EBD00F0F002000121705D
:100FE0006270A0700122DFF814570221284600F039
:100FF00041BD0121204600F03DBD0120D0E770B584
:1010000004460D46002606E0205CFFF7D1FF0120D4
:1010100000F00EFF761CF0B2A842F5D370BD0000C0
:1010200080B503280BD8DFE800F00204060841F081
:10103000800141F0900141F0880141F0980108469B
:10104000FFF7AEFFBDE80240052000F0F1BEF8B5A5
:101050000446DFF8A87600F038F80128DFF8A0563B
:10106000DFF8A06605D1306800F0F6FEC5E9120190
:101070000DE000F02AF850B9306800F0EDFED5E937
:10108000122300F0ADFFC5E9140100203060216893
:10109000B1F1804F18D12021DFF86C0600F0E4FC9C
:1010A000012811D101F00EF8296E401A02280BD345
:1010B000DFF85846206800F0CFFEC5E91601002091
:1010C000206000F0FFFF2866F1BD2021384600F0C7
:1010D000CBBC70B5DFF838560121284600F0C4FCBF
:1010E00070BBFFF78AFF00F00EF907210FF288604E
:1010F000DFF82066FFF783FFDFF81C1641F294103B
:10110000086004213046FFF7CFF80624012200F0E2
:1011100002F94FF4FA7000F08BFE00F0FBF84FF488
:10112000FA7000F085FE641EF0D104213046FFF70E
:101130001DF90122082100F0EFF8BDE8704000E041
:1011400070BD2DE9F047DFF8CCA52DED028B002115
:101150005046FFF7A9F8DFF8A845DFF8C095DFF89B
:10116000C085DFF8C055DFF8C065DFF8A4752046FC
:10117000FFF729F800212046FFF791F900214846A2
:10118000FFF792F800214046FFF789F9012200F0AD
:10119000C2F817E00122DFF8943500F099FF05D37B
:1011A0000022DFF88C3500F0ADFF09D8606E06E054
:1011B000DFF87C3500F08CFFECD240F6D270306066
:1011C000316861660421FFF781FF01284BD194ED5E
:1011D000168BDFF8603551EC180B002200F078FF19
:1011E00008D20122DFF8443500F08CFF98BF4FF49D
:1011F000E170E4D90022DFF8403500F069FF38BF24
:101200004FF46170DBD3DFF8343500F061FF38BF95
:1012100040F24650D3D3DFF8283500F059FF38BFED
:101220004FF4E160CBD3DFF81C3500F051FF38BF3D
:1012300040F6CA00C3D3DFF8103500F049FF38BFCD
:1012400040F68C20BBD3DFF8043500F041FF38BFF7
:1012500040F64E40B3D3DFF8F83400F039FFA7D2A0
:101260004FF46160ABE700215046FFF77FF80021A3
:101270002046FFF78BF900214846FFF777F8002159
:101280004046FFF783F900220821384600F0F2FBC0
:1012900000F040F80221FFF719FF20B9BDEC028BE6
:1012A000BDE8F0473BE0BDEC028BBDE8F04770B510
:1012B000FFF7A3FE00F027F806210FF2C440DFF885
:1012C0005454DFF84C64FFF79AFEDFF84C1441F6F3
:1012D0001C10086004212846FEF7E6FF0A240122BC
:1012E00000F014F8FA2000F0A3FD002200F00EF840
:1012F000FA2000F09DFD641EF1D12846BDE8704043
:101300000421FFF733B80021002089E61021304680
:1013100000F0B0BB00221021284600F0ABBB80B526
:101320000120FFF73DFEFFF7EEFFBDE80440092175
:101330000FF2544063E678B58DB000F0FDFE00F08A
:1013400084F9142200F058F900200590DFF8C0431A
:10135000DFF80004DFF8CC530168DFF8A06341F048
:1013600010010160026802F0100205920022059946
:101370000592036843F080030360016801F0800177
:10138000059105990592036843F001030360016824
:1013900001F00101059105990592036843F00803E6
:1013A0000360016801F00801059105990592182173
:1013B000036843F002030360006800F00200059038
:1013C0000598FFF717FEFFF7A5FF00220321FFF79F
:1013D0009EFF07200021009001910291204669465E
:1013E00000F04AFA182100F028F9204600F044FAEB
:1013F000102100F022F9284600F03EFA032100F007
:101400001CF9304600F038FABB48D34901604FF46C
:10141000827220214260C16100234FF400720A21D0
:101420008360C360036143618261036243628362DC
:10143000C16200F03DFB08B100F09CF900F0D1F86A
:1014400000F0D9F800F0D2F8B44DC448286000216B
:10145000C34800F0E3F808B100F08CF94FF4805471
:1014600000F0D7F808B100F085F92846FEF70FFF25
:1014700008B100F07FF900F0D9F808B100F07AF96E
:101480006021029140F2077200F0BAF808B100F052
:1014900071F92846FFF742FD1022002104A800F050
:1014A000E1F9102200F0A8F89D4DAE482860B32164
:1014B0004EF660200022E8606960AA602A61AA6195
:1014C00000F0B1F808B100F055F9049404A900F057
:1014D000A2F808B100F04EF92846FEF7C3FF08B1A4
:1014E00000F048F90A2100910122019200210291A5
:1014F0000022039269462846FFF752F908B100F02E
:1015000039F900F06EF800F076F800F06FF8814DD0
:1015100095482860002141F2941000F07FF808B14E
:1015200000F028F900F075F808B100F023F928461A
:10153000FEF7ADFE08B100F01DF900F077F808B134
:1015400000F018F96021029140F6CA0200F058F844
:1015500008B100F00FF9042202A92846FFF7A0F90C
:1015600008B100F007F92846FFF7D8FC1022002147
:1015700006A800F077F900F03EF8102200F037F8E6
:101580005F4D4FF08040286000214FF0FF3000F0A9
:1015900045F808B100F0EEF8069406A900F03BF813
:1015A00008B100F0E7F82846FEF75CFF08B100F04C
:1015B000E1F800F03BF808B100F0DCF80A21012264
:1015C00002910392002102220491059202A90022B5
:1015D0002846FFF7E5F808B100F0CCF8FFF779FDF1
:1015E000FCE71022002109A800F03CB91C220021D0
:1015F00002A800F037B908220021684600F032B98D
:101600000392002104910022069202A92846FFF7C6
:1016100047B9099409A92846FFF7A4B9E8606960A9
:10162000A9602961A9612846FEF7C0BD002100918B
:1016300001912846694600F099BD009101220021E0
:101640000291039101926946704780B592B03022B1
:10165000002106A800F006F91422002101A800F0DC
:1016600001F9002000904FF480334048016841F0B8
:10167000805101600021006800F0805000900098C7
:101680003B480091026842F4404202600122006837
:1016900000F44040009006A80099069202214FF401
:1016A00080020C910D920421B4220E910F9202211E
:1016B000042207931091119200F09EFD08B100F0F2
:1016C00059F800F029FF08B100F054F80221029106
:1016D0000F204FF4E05101900022049105910392F4
:1016E000052101A800F054FF08B100F043F813B041
:1016F00000BD0000A801002078000020001002407A
:10170000100000202440014000000240240000405E
:10171000000C0240D00000202C04004018010020E2
:1017200060010020000402403404004080842E4107
:10173000389CBC41F0B34A41903A4C4130C14D41D4
:1017400080844E41D0474F4164365041B4F95041F6
:10175000308C51413038024000340140000C0040D0
:1017600020AA4400004001400004004040380240EC
:101770000070004072B6FEE752756E6E696E6700CB
:1017800048616C74656400004573746F70706564C3
:1017900021000000704770477047704770477047DE
:1017A0000901020002D4284881547047274B02F0F7
:1017B0000F021A4402F8041C7047254B19684FF6B3
:1017C000FF020002114000F4E06008432149084391
:1017D0001860704770B51E4B1C68C4F302230124C7
:1017E000C3F10705052D2EBF0F2504FA05F56D1E63
:1017F0001E1D072E34BF0023DB1E2940994004FA2A
:1018000003F3BDE870405B1E1A401143C8E70100B6
:1018100007D4012200F01F010F4B8A40400943F812
:1018200020207047401EB0F1807F01D30120704717
:101830000A490B4A48600023F02010708B60072093
:10184000086000207047000000E400E018ED00E0B0
:101850000CED00E00000FA0500E100E010E000E01F
:1018600023ED00E010B5044610460A460146204626
:1018700000F01EFF204610BD2DE9F84F0D46002652
:10188000DFF8F811DFF8F8210F23044601202F6854
:10189000B04000EA0708804540F0E0804FEA460C7F
:1018A000032707FA0CF76FEA070E6F6807F00309C2
:1018B000B9F1010F1CBF07F00307022F12D1A7686F
:1018C000D5F80C900EEA070709FA0CF949EA070760
:1018D000A760676827EA00006F68C7F30017B74082
:1018E00038436060B0002F7907F00307032F21D041
:1018F000E768D5F808900EEA070709FA0CF949EAF3
:101900000707E7602F7907F00307022F12D1F708C6
:1019100004EB870700F01C09D7F820A003FA09FBA5
:101920002AEA0B0AD5F810B00BFA09F949EA0A09B4
:10193000C7F8209027680EEA070E2F7907F00307F3
:1019400007FA0CF747EA0E0CC4F800C06F6817F4EA
:10195000403F00F083804FF0000ECDF800E04FEAEA
:10196000960C176847F48047176000F00C00D2F817
:1019700000E0444F0EF4804ECDF800E0DDF800E0CA
:1019800057F82C7003FA00FE27EA0E0E3E4FBC42B9
:1019900008BF00272CD03D4FBC4208BF012727D0ED
:1019A0003B4FBC4208BF022722D03A4FBC4208BF7F
:1019B00003271DD0384FBC4208BF042718D0374F2B
:1019C000BC4208BF052713D0354FBC4208BF0627CD
:1019D0000ED0344FBC4208BF072709D0324FBC425B
:1019E00008BF082704D0314FBC420CBF09270A2783
:1019F00007FA00F040EA0E00DFF888E04EF82C000D
:101A00006FEA0800D1F808C06F6800EA0C0CFF020A
:101A100048BF48EA0C0CC1F808C0D1F80CC06F6888
:101A200000EA0C0CBF0248BF48EA0C0CC1F80CC01D
:101A3000D1F804C06F6800EA0C0CBF0348BF48EA45
:101A40000C0CC1F804C0D1F800C000EA0C0C6868A6
:101A5000C00348BF48EA0C0CC1F800C0761C0F2E2A
:101A60007FF614AFBDE8F18F0069084018BF012070
:101A7000C0B2704702B9090481617047003C01405F
:101A8000443802400838014000000240000402408F
:101A900000080240000C0240001002400014024006
:101AA00000180240001C02400020024000240240B6
:101AB00038B5040001D1012032BD606A30B96068D8
:101AC000B0F5827F05D00021E16102E000202061B5
:101AD00060610020A06204F15005687820B90021FF
:101AE00029702046FFF768F90220687000F008F9B5
:101AF0006068A168E26800F4827001F40441084360
:101B0000217C02F400621043227D01F002010843AF
:101B1000A16902F001021043227F01F40071084321
:101B200094F8201002F038021043A26A01F08001FC
:101B30000843216802F4005210430860A06994F839
:101B400024102268000C00F0040001F0100108438A
:101B500050602068C16921F40061C16100206860A3
:101B60000121697032BD2DE9F843054605F15007A2
:101B7000002638780C4691469846012808BF022076
:101B800000F08F800120387000F09CFA79780129EC
:101B900018BF02264DD1002C18BFB9F1000F7DD01F
:101BA0000321797000237B602C63A5F83490A5F89D
:101BB00036900021A963AB87E9876B642964AB6821
:101BC000B3F5004F09D129680B6823F040030B607F
:101BD00029680C6844F480440C6029680B685C0632
:101BE00003D40B6843F040030B604446E968B1F549
:101BF000006F696821D1002918BFB9F1010F00F009
:101C000073F8804604E0296B0A88C26000F051F83E
:101C1000E88E002833D0286881688A07F3D400F062
:101C200051FAA0EB0800A04204D314F1010FEFD049
:101C3000032634E0002CEBD1FAE7002918BFB9F1F4
:101C4000010F00F045F8804606E0296B0A78027320
:101C5000286B411C00F02FF8E88E80B1286881685D
:101C60008A07F2D400F02EFAA0EB0800A04203D3BA
:101C700014F1010FF0D0DBE7002CEDD1D8E742469C
:101C80002146284600F0A2F808B120207860A86814
:101C900010B900F015F8009A786800B1012600F03C
:101CA00002F8BDE8F28301207870002139703046D7
:101CB0007047286B811C2963E88E411EE9867047B6
:101CC000002100912968CA680092896800917047D4
:101CD00009D1296B2B680A781A73296B4A1C2A636D
:101CE000E98E4A1EEA86704709D1296B2B680A885B
:101CF000DA60296B8A1C2A63E98E4A1EEA867047DD
:101D00002068016821F04001016070472DE9F84327
:101D1000089C05460E4690461F4600F0D3F9381A37
:101D2000241800F0CFF981463F4801684901090DA8
:101D30006143009105E0009800B900240098401E1E
:101D40000090286881683140B1420CBF012000201A
:101D5000404532D017F1010FF3D000F0B3F9A0EBFA
:101D60000900A04201D2002CE5D12868416821F089
:101D7000E00141606868B0F5827F08D1A868B0F5DD
:101D8000004F18BFB0F5806F01D100F019F8A86AB4
:101D9000B0F5005F09D12868016821F400510160A5
:101DA0002868026842F40052026005F150000121E7
:101DB000417000220270032000E00020BDE8F283A1
:101DC0002868016821F04001016070477CB5044635
:101DD0001548164E0B4601681825B1FBF5F5B5FB05
:101DE000F6F64FF47A70464300966168B1F5827F4B
:101DF00009D10092802100222046FFF787FF58B1C9
:101E000000F00CF876BD009830B10098401E0090AC
:101E1000216888680106F6D4002076BD606D40F028
:101E200020006065032070470C00002040420F0036
:101E300038B5044600F046F914F1010F054602D00A
:101E400004480178641800F03DF9401BA042FAD321
:101E500031BD00BF0000002050B1B0FA80F18840D1
:101E6000C91CC1F58461090501EBD021400570470B
:101E700001467047841A71EB030604D26E40001BC2
:101E8000B141121973414FF4001C1CEB410F34BFD8
:101E90007CEB430683E00C0DA4EB1356362E00F3C7
:101EA0007C80012E45EAC32341DC43EA525312BF32
:101EB000D20292025B08240545EAC12141EA505151
:101EC000D2EBC020994125D407D1B0FA80F610FAA0
:101ED00006F162D00020203608E0B1FA81F6B14068
:101EE000C6F1200220FA02F21143B0404FEAF47426
:101EF000B4EB465434F001064FEA74040AD8D6F520
:101F00000016760D04F00044F04061FA06F25040ED
:101F1000F1404840C00A40EA415021F0004128BF4A
:101F20005FEA500550F1000044EBD12135E0DB0AB7
:101F300045EAC121C90AB6F120050EDD42EA024296
:101F4000120CC5F1200603FA06F6EB4042EA06053C
:101F50006D42984161F100010DE062FA06F5F24030
:101F6000554063FA06FC82EA0C02F3405A406D4287
:101F7000904161EB030111F4801F05D1641E6205DD
:101F800002D06D004041494121F48011430875F1B0
:101F9000004350F1000041EB045170BC70471CEB52
:101FA000410F15D223F0004352EA43060BD04FEA0B
:101FB0004C0CBCEB410F04D80C0D661E342EB7DD63
:101FC000EBE7801A994150EA410608BF0021E4E797
:101FD00008BF1CEB430F28BF6FF00001DDE70000D6
:101FE00070B491EA030F4FF000457FF543AF6B40AB
:101FF000841A71EB030603D2001BB141121973411D
:102000004FF4001C1CEB410F34BF7CEB430442E057
:102010000C0DA4EB1356352E4FDC45EAC323DB0A27
:1020200045EAC121C912B6F120050DDD63FA05F6B6
:10203000EB4086EA0305124218BF45F00105C018BF
:1020400051F100010CD213E062FA06F5F24055405E
:10205000F3415A40B340F3405A408018594107D3E6
:1020600049085FEA30005FEA350528BF45F0010501
:1020700001F58011420875F1004250F1000041EB7A
:1020800004514E0016F5001F70BC38BF7047002089
:10209000090D090570471CEB410F10D252EA4306A7
:1020A0000BD0BCEB410F05D80C0DAB43661E342E94
:1020B000B6DD02E0AB438018594170BC704770BC7C
:1020C0007047000001484068704700BF00000020D2
:1020D00041EA030C50EA4C0C52EA0C0C4FF4001C81
:1020E00009D307D01CEB410F9CBF1CEB430F8B4265
:1020F00008BF824270471CEB430FFBD8994208BFD0
:102100009042704741EA030C50EA4C0C52EA0C0C26
:102110004FF4001C09D307D01CEB410F9CBF1CEBF4
:10212000430F994208BF904270471CEB410FFBD808
:102130008B4208BF8242704780B50B48016841F46A
:1021400000710160026842F480620260016841F43B
:10215000807101600320FFF730FB0F2000F0DCFAF4
:10216000FEF710FE002002BD003C024070B500F1F9
:102170003C031A78012A01D1022070BD01221A7095
:1021800002245C7005686E68AC680A6826F0700608
:1021900016436E6002681148824218BFB2F1804F48
:1021A00011D0114882421CBF104DAA420BD00D48DD
:1021B00082421CBF0E4DAA4205D0094882421CBF74
:1021C0000C4DAA4204D1486824F080040443946072
:1021D000012159700020187070BD000000000140FE
:1021E00000400140000C0040000400400008004096
:1021F00000040140001800402DE9F843040016D007
:102200002078DFF80463C10713D5B06800F00C0034
:10221000042807D0B06800F00C0008283DD1706891
:1022200041023AD53068810303D56068002800F088
:1022300065812078B54F810719D5B06810F00C0F73
:1022400007D0B06800F00C0008285BD1706841022C
:1022500058D43068810703D5E068012840F04E81EA
:102260003168206921F0F80141EAC001316021782C
:10227000080779D56069A649002868D001220A605C
:10228000FFF720FF0546706F81076DD4FFF71AFF37
:10229000401B0228F7D9032033E16068B0F5803F86
:1022A00004D1306840F48030306011E0B0F5A02FE8
:1022B000306806D140F480203060316841F48031CC
:1022C00005E020F480303060316821F480213160F5
:1022D000606858B1FFF7F6FE054630688103A8D460
:1022E000FFF7F0FE401B6528F7D3D4E7FFF7EAFEBF
:1022F0000546306881039CD5FFF7E4FE401B652846
:10230000F7D3C8E7E068A8B101213960FFF7DAFE2A
:1023100005463068810705D4FFF7D4FE401B02282C
:10232000F7D9B8E73068216920F0F80040EAC10029
:1023300030609CE73860FFF7C5FE054631688807C6
:1023400095D5FFF7BFFE401B0228F7D9A3E7086029
:10235000FFF7B8FE0546706F810705D5FFF7B2FE9F
:10236000401B0228F7D996E72078410760D5306CEA
:102370000025C1000BD4002000900125316C41F0F4
:1023800080513164306C00F0805000900098DFF88C
:102390008481D8F80000C10513D4D8F8000040F4B7
:1023A0008070C8F80000FFF78DFE8146D8F8000065
:1023B000C10506D4FFF786FEA0EB09000228F5D977
:1023C00069E7A068012805D00528306F06D140F0E4
:1023D00004003067306F40F0010005E04008400025
:1023E0003067306F20F00400306741F28938A06810
:1023F00060B1FFF767FE8146306F810713D4FFF7A6
:1024000061FEA0EB09004045F6D344E7FFF75AFE12
:102410008146306F810706D5FFF754FEA0EB090017
:102420004045F6D337E71DB1306C20F08050306462
:10243000A069002864D0B16801F00C0108293AD0E5
:1024400002282AD100203866FFF73CFE0546306896
:10245000810105D5FFF736FE401B0228F7D91AE7A0
:10246000E069216A626A0843A16A490840EA821069
:10247000491E40EA0140E16A40EA016070600120C3
:102480003866FFF71FFE04463068810138D4FFF735
:1024900019FE001B0228F7D9FDE600203866FFF779
:1024A00011FE0446306881012AD5FFF70BFE001BA0
:1024B0000228F7D9EFE6012820D07068E26900F41D
:1024C0008001914202BF00F03F01226A914201BFA8
:1024D00047F6C0710140626AB1EB821F0ED1A26A59
:1024E00000F4403101F580315208B1EB024F02BFD8
:1024F00000F07060E16AB0EB016F01D0012000E0F4
:102500000020BDE8F28300BF0038024000004742CF
:10251000800E474200700040F8B500F027F8012116
:1025200000F01EF83160FFF7CDFD07462868C103B3
:1025300006D4FFF7C7FDC01BA042F7D30320F2BDAE
:1025400001207060FFF7BEFD06462868810305D4B0
:10255000FFF7B8FD801BA042F7D3EFE70020F2BDE4
:10256000006800F0805000900098704700200090B4
:1025700040F2E9340448054E0168024D41F08051B3
:1025800001607047047000404038024040000E4235
:102590002DE9F04104000F4654D0404E306800F061
:1025A0000F00B84202D200F073F84BD120683C4DC6
:1025B000810712D5400703D5A96841F4E051A9600D
:1025C0002078010703D5A86840F46040A860A96896
:1025D000A06821F0F0010143A9602178C80729D53E
:1025E0006068012802D129688A0305E0022818BF23
:1025F000032803D129688A0103D423E029688A07C4
:1026000020D5A968890840EA8100A860FFF75AFD33
:102610008046A868616800F00C00B0EB810F09D01B
:10262000FFF750FDA0EB080041F289318842F0D35A
:1026300003202BE0306800F00F00874204D200F046
:1026400027F801D0012021E02078410705D5AA68AC
:10265000E06822F4E0520243AA602178080706D518
:10266000A968206921F4604141EAC001A96000F035
:1026700073F8AA680B490C4BC2F30312895CC8407B
:1026800018600A48006800F047F80020BDE8F081B3
:102690003770316801F00F01B9427047003C0240C9
:1026A00000380240C82900080C0000200800002063
:1026B00062F30F2262F31F42401810F0030308D0A8
:1026C000C91A1FD3DB0748BF00F8012D28BF20F827
:1026D000022D130030B414461546103928BF20E9E6
:1026E0003C00FAD8490728BF20E90C0048BF40F851
:1026F000042D890028BF20F8022D48BF00F8012DC5
:1027000030BC7047C91818BF00F8012DCB0728BF8F
:1027100000F8012D7047000038B50D4D0D4B2A789B
:1027200004464FF47A711868B1FBF2F2B0FBF2F094
:10273000FFF778F850B9102C08D2002221464FF04C
:10274000FF30FFF747F8AC60002032BD012032BDFA
:10275000000000200C00002030B5144C606800F030
:102760000C00042802D0082802D01DE0104830BD1B
:10277000226820680023410202F03F0204D5256848
:102780000B49C5F3881003E020680A49C0F388109C
:10279000A1FB000100F010F82168C1F30141491CC0
:1027A0004900B0FBF1F030BD024830BD04380240B2
:1027B00000127A000024F400D3BBD9B1B2F5803FF7
:1027C0005BD2022A1ED98C46B1FBF2F102FB11C387
:1027D0001B0443EA1043B3FBF2FC02FB1C3380B240
:1027E00040EA0343B3FBF2F002FB103240EA0C4034
:1027F00000237047022A05D98446B0FBF2F002FBA1
:1028000010C270474AB105D100F0010249085FEAE1
:102810003000704700220023704700F051B80B00D1
:102820000200002100207047F7D3002200237047E8
:10283000904271EB030CF2D370B5B1FA81F4B3FAA4
:1028400083F52C1BA340C4F1200532FA05F633436F
:10285000A2405FF00046E64002E05B085FEA320219
:10286000841A71EB030524BF204629467641F4D330
:1028700002000B003000002170BD70B5B1FA81F488
:10288000B2FA82F5C4F120046419B4F12006DAD357
:10289000B2405FF00044F440002502E052085FEAD5
:1028A0003303C61A71EB020E24BF304671466441F1
:1028B0006D41F3D302000B002000290070BD000021
:1028C00070470000FEE7FEE7FEE7FEE7FEE7704721
:1028D0007047704700F014B80548FDF7BDBE0548C5
:1028E000FDF7BABE0448FDF7B7BE0448FDF7B4BE15
:1028F0006001002010000020D000002018010020FE
:102900000248416802788A1842607047000000203F
:1029100030B4002512E050F8042BD30744BF4A44DA
:10292000521E091F042942F8045BFAD213468C0791
:1029300044BF15809B1CC90748BF1D7050F8041B7D
:102940000029E8D130BC704710B5074979441831E7
:10295000064C7C44163404E00A68081D114488477C
:102960000146A142F8D110BD2C0000004C0000002F
:102970004EF68851CEF20001086840F470000860FD
:10298000BFF34F8FBFF36F8F4FF00170E1EE100A6E
:10299000704700007DFFFFFF9C0100001000002039
:1029A00000000000B7E3FFFF10000000A0000000DF
:1029B00000000020000000000248016841F470019E
:1029C0000160704788ED00E000000000000000009A
:1029D000010203040607080900F00DF8002801D0E1
:1029E000FFF7B2FFAFF300800020AFF30080FEF7E7
:1029F000A2FC00F002F80120704700F001B80000CE
:102A00000746384600F002F8FBE7000080B5AFF358
:102A10000080024A11001820ABBEFBE7260002002E
:102A20000548014603B4684680F30988AFF3008087
:102A3000FFF79EFFFFF7D0FFA5EDF5FE01488047A9
:102A400001480047B9290008212A000801000000B8
:102A500000000000100000000024F400FFF7FEBF9B
:102A6000FFF7FEBFFFF7FEBFFFF7FEBFFFF7FEBF9A
:102A7000FFF7FEBFFFF7FEBFFFF7FEBFFFF7FEBF8A
:102A8000FFF7FEBFFFF7FEBFFFF7FEBFFFF7FEBF7A
:102A9000FFF7FEBFFFF7FEBFFFF7FEBFFFF7FEBF6A
:102AA000FFF7FEBFFFF7FEBFFFF7FEBFFFF7FEBF5A
:102AB000FFF7FEBFFFF7FEBFFFF7FEBFFFF7FEBF4A
:102AC000FFF7FEBFFFF7FEBFFFF7FEBFFFF7FEBF3A
:102AD000FFF7FEBFFFF7FEBFFFF7FEBFFFF7FEBF2A
:102AE000FFF7FEBFFFF7FEBFFFF7FEBFFFF7FEBF1A
:102AF000FFF7FEBFFFF7FEBFFFF7FEBFFFF7FEBF0A
:102B0000FFF7FEBFFFF7FEBFFFF7FEBFFFF7FEBFF9
:102B1000FFF7FEBFFFF7FEBFFFF7FEBFFFF7FEBFE9
:102B2000FFF7FEBFFFF7FEBFFFF7FEBFFFF7FEBFD9
:102B3000FFF7FEBFFFF7FEBFFFF7FEBFFFF7FEBFC9
:102B4000FFF7FEBFFFF7FEBFFFF7FEBFFFF7FEBFB9
:102B5000FFF7FEBFFFF7FEBFFFF7FEBFFFF7FEBFA9
:102B6000FFF7FEBFFFF7FEBFFFF7FEBFFFF7FEBF99
:102B7000FFF7FEBFFFF7FEBFFFF7FEBFFFF7FEBF89
:102B8000FFF7FEBFFFF7FEBFFFF7FEBFFFF7FEBF79
:102B9000FFF7FEBFFFF7FEBFFFF7FEBFFFF7FEBF69
:102BA000FFF7FEBFFFF7FEBFFFF7FEBFFFF7FEBF59
:042BB000FFF7FEBF6E
:0400000508002A21A4
:00000001FF
