:020000040800F2
:10000000B00500204D2D0008D52B0008D72B000887
:10001000D92B0008DB2B0008DD2B000800000000B6
:10002000000000000000000000000000DF2B0008BE
:10003000E12B000800000000E32B0008E52B00087E
:100040006D2D0008712D0008752D0008792D000810
:100050007D2D0008812D0008852D0008892D0008C0
:100060008D2D0008912D0008952D0008992D000870
:100070009D2D0008A12D0008A52D0008A92D000820
:10008000AD2D0008B12D0008B52D0008B92D0008D0
:10009000BD2D0008C12D0008C52D0008C92D000880
:1000A000E92B0008CD2D0008D12D0008D52D000822
:1000B000D92D0008EF2B0008DD2D0008E12D0008E8
:1000C000E52D0008E92D0008ED2D0008F12D0008B0
:1000D000F52D0008F92D0008FD2D0008012E00085F
:1000E000052E0008092E00080D2E0008F52B00082B
:1000F000112E0008152E0008192E00081D2E0008CC
:10010000212E0008252E0008FB2B0008292E0008B0
:100110002D2E0008312E0008352E0008392E00083B
:100120003D2E0008412E0008452E0008492E0008EB
:100130004D2E0008512E0008552E0008592E00089B
:100140005D2E0008612E0008652E0008692E00084B
:100150006D2E0008712E0008752E0008792E0008FB
:100160007D2E0008812E0008852E0008892E0008AB
:100170008D2E0008912E0008952E0008000000002A
:10018000992E00089D2E0008A12E0008A52E00081B
:10019000A92E0008AD2E0008B12E0008B52E0008CB
:1001A000B92E0008BD2E0008C12E000838B5040085
:1001B00001D1012032BD00F027F918B900F0F4FB9D
:1001C00000F0DEFDFFE702206870211D206800F0CE
:1001D000EFFB0120A8720121A970E87029716871F4
:1001E000A971E871297268726970002032BD0546F4
:1001F0000C462868002200F066BD2868C16821F01E
:10020000040170472868C16821F00201704728681E
:100210000022214600F057BD38B5040001D101206D
:1002200032BD00F0F1F818B900F0BEFB00F080FE1E
:10023000C9E710B5044604F13E0009B9027807E0A9
:10024000042908BF427803D008290CBF8278C278FD
:10025000012A01D0012010BD11B9022202700AE06A
:10026000042902D10222427005E0082907BF0222B8
:1002700082700223C3702068012200F024FD00F088
:100280002BF818BF884200F02EF818BFB0F1804F4D
:1002900012D000F01DF81CBFDFF83C3198420BD0A3
:1002A00000F012F818BF884206D000F069F81CBFB1
:1002B000DFF83421904203D100F05DF802D02068CD
:1002C00000F07AF8002010BDDFF81021904270474E
:1002D000DFF80021904270472068DFF8F420DFF853
:1002E00000119042704703D1436C43F400434364D0
:1002F00020689042704770B5FFF779FF00F028F84A
:100300001CBFDFF8DC60B04206D1036A134204BFB1
:10031000036A0B4200F056F800F016F804BF006ABA
:10032000084200F01EF814B9012101700AE0042C03
:1003300002D10121417005E0082C07BF0121817025
:100340000122C270002070BD2868036A1342704702
:100350002868DFF87C3040F2444141F211129842A3
:10036000704705D12968086840080A4640001060B7
:1003700005F13E007047806800F0070006287047CE
:100380001849884270472068C26842F010027047DE
:100390002068C26842F0020270472068C26842F0DA
:1003A000080270472068C26842F0040270470446A1
:1003B000002504F13E0070470168024641F001014A
:1003C0001160704703D1436C23F4004343647047CA
:1003D000000001400004004000080040000C004004
:1003E00000040140004001400018004038B50400FE
:1003F00001D1012032BD00F007F818B900F0D4FA9D
:1004000000F097FDFFF7DFBE04F13C056878704708
:10041000C2600122206800F056BC2868016A41F2DF
:1004200011121142704738B5FFF7C1FF11B90278B8
:1004300003790AE0042902D14278437905E00829CA
:1004400007BF82788379C278C379012A08BF012B5C
:1004500001D0012032BD21B90222027002230371B2
:100460001EE0042906D10222427002234371FFF7E5
:1004700099FF17E0082906D10222827002238371B6
:10048000FFF78BFF0EE00222C2700223C371080047
:1004900006D00429EBD00829F2D00C2924D026E07C
:1004A000FFF776FFFFF7B4FF00F02FF818BFB0F1A9
:1004B000804F14D000F025F81CBFDFF810219042C7
:1004C0000DD000F01AF81CBFDFF8FC20904206D0D7
:1004D000FFF756FF1CBFDFF8F820904209D1FFF765
:1004E0004AFF08D0206804E0FFF74DFFDAE7012556
:1004F00001E0FFF761FF284632BDDFF8D8108842DF
:100500007047DFF8D410884270472068DFF8CC10BD
:100510008842704770B506460C460025200006D07C
:10052000042C1AD0082C1CD00C2C1FD023E03068CF
:10053000FFF769FEC16000223068FFF76AFE30688D
:10054000FFF76CFF02BF006A40F24441084200F02E
:1005500030F894B900F015F811E03068FFF74EFE5E
:10056000E8E73068C16821F00801E3E73068C16856
:1005700021F01001DEE7012501E000F007F8284630
:1005800070BD01210170012202717047042C04D159
:1005900001214170012242717047082C04D10121D0
:1005A00081700122827170470121C1700122C271E4
:1005B000704705D13068016849080246490011605A
:1005C00006F13E00704700000004014000080040B2
:1005D00000180040000C00400004004000000140F2
:1005E00010B50446206801698A0715D5C1688A07D5
:1005F00012D56FF00201016101222277806910F0AB
:10060000030F204602D000F0ECFC03E001F02CF8D0
:1006100000F087F800202077206801694A0715D587
:10062000C1684A0712D56FF00401016102222277E6
:10063000806910F4407F204602D000F0D2FC03E035
:1006400001F012F800F06DF80020207720680169B1
:100650000A0715D5C1680A0712D56FF008010161B4
:1006600004222277C06910F0030F204602D000F068
:10067000B8FC03E000F0F8FF00F053F8002020770A
:1006800020680169CA0615D5C168CA0612D56FF07F
:100690001001016108222277C06910F4407F2046D2
:1006A00002D000F09EFC03E000F0DEFF00F039F81D
:1006B0000020207720680169CA0708D5C168CA07E9
:1006C00005D56FF001010161204600F0CEFF2068E2
:1006D00001690A0608D5C1680A0605D56FF08001D0
:1006E0000161204600F0C2FF206801694A0608D572
:1006F000C1684A0605D56FF040010161204600F04F
:10070000B6FF206801698A060AD5C1688A0607D53E
:100710006FF0200101612046BDE8104000F0A8BF45
:1007200010BD204600F0A5BFF8B500F0D8F801D103
:100730000220F2BD012084F83C007AB9F3687268A7
:100740003168206800F02DFA2168886920F00C00DB
:1007500088618A69B06802438A615DE0042A10D129
:10076000F36872683168206800F073FA2068816964
:1007700021F4406181618169B26841EA02218161AD
:100780004AE0082A21D12168F068726833681C3178
:100790001B024F6827F480774F6003F420630F68D3
:1007A000D1F804C0BF0842EA870260F307122CF4B4
:1007B00020600A6003434B60086820F00C0008606A
:1007C0000A68B06802430A6026E00C2A23D1206838
:1007D000F168726833681C301B03476827F4805740
:1007E000476003F420430768D0F804C027F440773B
:1007F00047EA022761F30F372CF4204107600B43CF
:100800004360016821F4406101600268B16842EA16
:100810000122026000E0012500F001F8F2BD002095
:1008200084F83C002846704770B500F058F801D1B4
:10083000022070BD012084F83C0032B1042A15D09A
:10084000082A25D00C2A34D045E0206800F0FBF8B7
:100850002168886940F008008861886920F00400F8
:1008600088618A69306902438A6135E0206800F056
:1008700016F92068816941F400618161816921F480
:10088000806181618169326941EA0221816123E0ED
:10089000206800F034F92168C86940F00800C86198
:1008A000C86920F00400C861CA6930690243CA619E
:1008B00012E0206800F052F92068C16941F400613B
:1008C000C161C16921F48061C161C169326941EAD4
:1008D0000221C16100E00125FFF7A1FF70BD0446C0
:1008E000002594F83C0001280E46704770B5064676
:1008F00006F13C0500242878012801D1022070BDB2
:100900000120287002226A70DFF8F80232689368CA
:10091000034093600868020018BF102830D02028D8
:1009200018BF30282CD0402826D0502819D0602855
:100930001BD0702806D0B0F5805F27D0B0F5005FDF
:1009400007D022E000F02BF83068816841F0770191
:1009500005E000F024F83068816841F4804181604E
:1009600014E000F018F850210BE0CA6849683068BC
:1009700000F085F9602104E000F00DF8402100E06E
:100980000146306800F08DF900E001240120687014
:1009900000F00AF870BDCA68496830684AE1CB685F
:1009A0004A688968306884E10021297020467047D0
:1009B000F0B50568944C954B954E964FDFF858C2AC
:1009C000A04218BFB0F1804F07D0604518BFB842B1
:1009D00003D0B04218BF98420DD14A6825F0700587
:1009E0001543A04218BFB0F1804F17D060451CBF1F
:1009F000B842B04212D098421CBF884A90420DD0F3
:100A0000874EB0421CBF874A904207D0864EB04204
:100A10001FBF864A9042864EB04203D1CA6825F471
:100A2000407515434A6925F0800515430560A042CD
:100A30008D68C5620A68826212BF984209690163C3
:100A400001224261F0BDF0B5026A6F4F52085200B8
:100A50000262066A446885690B688A6825F0730536
:100A600026F002061D431643684BB84218BF984251
:100A700007D1CA6826F008061643B84226F00406D5
:100A800001D0984205D14B698A6924F440741C4313
:100A9000144344608561496841630662F0BDF0B566
:100AA000026A594E22F010020262B042056A43689F
:100AB00084690A6824F4E64444EA02248A6825F03A
:100AC000200545EA0215514A18BF904208D1CF6867
:100AD00025F0800545EA0715B04225F0400501D014
:100AE000904206D14E698A6923F44063164343EA73
:100AF000860343608461496881630562F0BDF0B597
:100B0000026A22F480720262056A4368C4698E68D0
:100B10000A6825F4007524F0730445EA0625144399
:100B2000394E3A4AB04218BF904208D1CF6825F4F6
:100B3000006545EA0725B04225F4806501D0904262
:100B400006D14E698A6923F44053164343EA0613DB
:100B50004360C4614968C1630562F0BD70B5026A53
:100B6000294E22F480520262B042046A4268C3698C
:100B70000D6823F4E64343EA05238D6824F400540A
:100B800044EA05341CBF214DA84204D14D6922F42A
:100B9000804242EA85124260C3614968016404628E
:100BA00070BDF0B5046A184E640864000462B04277
:100BB0008469056A18BFB0F1804F11D0164EB0425B
:100BC0001CBF144FB8420BD0114EB0421CBF0F4F88
:100BD000B84205D0114EB0421CBF134FB84203D1EA
:100BE000A40842EA840201E044F0010263F3071220
:100BF00025F00A0501F00A01826129430162F0BD76
:100C0000000000008800FFFF0000014000040140D8
:100C1000000C00400008004000040040004001407B
:100C2000004401400048014000180040001C004002
:100C30000020004010B5036A046A6408640004627E
:100C400023F00A03846924F0F00444EA0214846166
:100C500044E030B5046A24F0100404620901846998
:100C6000056A24F4407444EA022463F30F3425F047
:100C7000A00501F0A00184612943016230BD10B5D7
:100C8000036A23F0100303628369046A23F4704348
:100C900043EA023324F0A004836144EA01140462AD
:100CA00010BD826822F07002114341F0070181609B
:100CB000704710B5846824F47F442143114341EA0E
:100CC0000321816010BD10B501F01F01036A0124EA
:100CD0008C40A343036202FA01F1036A19430162E3
:100CE00010BD0EE002684368024408305FEAC37C2E
:100CF00044BF4B445B1E52F804CB43F804CB091F9E
:100D0000F9D150F8041B0029ECD1704781B00020C4
:100D1000009000227C48416841F480414160416874
:100D200001F48041009100990092036843F08053E0
:100D30000360006800F080500090009801B0704798
:100D400010B586B000F099F821687048814215D13D
:100D500000226F480092416941F4005141614169AC
:100D600001F40051009100990092442100F08BF8A9
:100D7000032205210591049200F0B7F806B010BDDA
:100D800010B586B000F079F82168634A6048914256
:100D900011D1002100910421026942F00202026196
:100DA0000022006900F00200009000981D2000F071
:100DB0007BFC1D205DE0594A914211D10021009138
:100DC0000321026942F0080202610022006900F07A
:100DD000080000900098322000F066FC322048E0C5
:100DE0004F4A91421AD100210091426942F4803267
:100DF00042610022416901F4803100910099009222
:100E0000202100F040F80491032100F06DF8002249
:100E10000321182000F048FC18202AE0414A9142A2
:100E200029D100210091026942F0400202610022B2
:100E3000016901F040010091009900924FF4804156
:100E4000036843F0020303600222006800F002001E
:100E5000009000983448019102920021039104917E
:100E6000092100F041F8002205212B2000F01CFC94
:100E70002B2000F036FC06B010BD044614220021E1
:100E800001A800F059BC036843F01003036002227C
:100E9000006800F01000009000981E480191029236
:100EA00000210391704710B586B0FFF7E6FF216877
:100EB000194B1E48164A994203D100F019F84022F6
:100EC00005E0164B99420DD100F012F8012200996D
:100ED00001920223002203920492029302220592BD
:100EE00000F003F806B010BD059101A900F02EBC7A
:100EF00000210091136843F001031360116801F0B1
:100F00000101009170470000403802400034014068
:100F1000303802400010024000040040000C004045
:100F20000040014000180040000402400000024060
:100F30007047704738B5DFF89C46F82100F016F886
:100F4000012306E038B5DFF88C46FA2100F00EF8F0
:100F50000A2303222146DFF8800600F06EFD2846B2
:100F6000BDE838400022022100F0EEBC00F0F002A3
:100F7000000121706270A0700122DFF8605602212A
:100F8000284600F0E1BC0121204600F0DDBC012034
:100F9000D0E770B504460D46002606E0205CFFF75A
:100FA000D1FF012000F0AEFE761CF0B2A842F5D3CE
:100FB00070BD000080B503280BD8DFE800F0020404
:100FC000060841F0800141F0900141F0880141F0B4
:100FD00098010846FFF7AEFFBDE80240052000F08B
:100FE00091BE70B5DFF8F46500F038F80128DFF83D
:100FF000F045DFF8F05504D100F02DF8C4E91201F6
:101000000CE000F02BF848B900F025F8D4E91223E1
:1010100000F04AFFC4E91401002028604FF4804129
:10102000DFF8C46500F01BF8012804D100F013F8C4
:10103000C4E9160170BD4FF4804100F010F848B9C2
:1010400000F009F8D4E9162300F02EFFC4E91801D6
:101050000020286070BD286800F098BF202130462D
:1010600000F06CBC70B5DFF884550121284600F013
:1010700065FC78BBFFF78BFF00F0CFF807210FF27C
:10108000CC50DFF85C65FFF784FFDFF8641541F2B0
:101090009410086004213046FFF7CBF806240122A3
:1010A00000F02EFA4FF4FA7000F02CFE002200F04F
:1010B00027FA4FF4FA7000F025FE641EEFD10421E8
:1010C0003046FFF718F90122082100F01AFABDE8AE
:1010D000704000E070BD2DE9F047DFF81465DFF8DF
:1010E0001495DFF81485DFF81445DFF8F454DFF8C1
:1010F000FCA42AE000212846FFF79BF800212046A7
:10110000FFF791F900214046FFF793F80021484688
:10111000FFF789F93768DFF8E814D5E918230020CC
:1011200000F042FF0022DFF8DC3401F061F8002219
:10113000DFF8D43400F0FAFD0022DFF8D03400F0FC
:1011400033FF01F02BF97843B060042100F069F817
:10115000B0B900F065F8012812D1D5E914010022D8
:10116000DFF8AC3400F020FF0022DFF8A83401F0F3
:1011700031F905D20122DFF8883401F045F9B9D9F7
:1011800000212846FFF7B7F800212046FFF7C2F9F3
:1011900000214046FFF7AFF800214846FFF7BAF9B3
:1011A00000F03EF810B9BDE8F0473DE0BDE8F0477B
:1011B00070B5FFF7ECFE00F030F806210FF2944016
:1011C000DFF81C54DFF82464FFF7E3FEDFF8201497
:1011D00041F61C10086004212846FFF72AF80A246B
:1011E00001221021304600F0AFFBFA2000F08AFD0A
:1011F00000221021304600F0A7FBFA2000F082FD0B
:10120000641EEDD104212846FFF775F83046BDE88D
:1012100070400022082100F097BB00210020C9E6A1
:101220000221504600F08ABB80B50120FFF782FE04
:10123000FFF7F3FFBDE8044009210FF22040A8E6C4
:1012400078B58DB001F0FAF800F072F900F0F6F917
:1012500000200090DFF89443DFF8BC03DFF87C53F4
:10126000016841F010010160026802F01002009272
:10127000002200990092036843F080030360016834
:1012800001F08001009100990092036843F001038E
:101290000360016801F00101009100990092036868
:1012A00043F002030360016801F00201009100991C
:1012B00000921821036843F008030360006800F0FF
:1012C000080000900098FFF75FFE0022032100F065
:1012D00018F907200021019002910391204601A9ED
:1012E00000F034FA182100F00FF9204600F02EFA31
:1012F000032100F009F9284600F028FAB648C7494A
:1013000001604FF4827220214260C16100234FF4DA
:1013100000720A218360C3600361436182610362DA
:1013200043628362C16200F02DFB08B100F08BF9CB
:1013300000F0D5F800F0DFF800F0CCF8AE4DB8487A
:1013400028600021B748E8606960A9602961A96147
:101350002846FEF72BFF08B100F075F94FF48054D2
:10136000099409A92846FFF7C1FA08B100F06BF902
:101370002846FEF751FF08B100F065F90021009101
:1013800001912846694601F073F808B100F05BF955
:101390006021029140F2077200F0A6F82846FFF79C
:1013A00043FA08B100F04FF92846FFF77CFD00F042
:1013B0008CF8102200F0A0F88E4E9B4800F074F8D4
:1013C0004EF6602500F07BF808B100F03CF900F023
:1013D00071F808B100F037F93046FFF707F808B1A7
:1013E00000F031F900F098F808B100F02CF900F0A5
:1013F00076F800F080F800F06DF8794E8B48306098
:10140000002141F29410F0607160B1603161B1610E
:1014100000F058F808B100F016F9099409A900F095
:101420004BF808B100F00FF93046FEF7F5FE08B1B1
:1014300000F009F90021009101913046694601F060
:1014400017F808B100F0FFF86021029140F6CA02D7
:1014500000F04AF83046FFF7E7F908B100F0F3F87A
:101460003046FFF720FD00F030F8102200F044F87D
:10147000624E6F4800F018F800F021F808B100F053
:10148000E2F800F017F808B100F0DDF83046FEF79A
:10149000ADFF08B100F0D7F800F03EF808B100F059
:1014A000D2F8FFF7DFFDFCE73060B3210022716066
:1014B000B2607047049404A93046FFF717BA32614E
:1014C000B261F5603046FEF771BE1022002104A81B
:1014D00000F032B91C22002102A800F02DB9102220
:1014E000002109A800F028B90392002104910022EC
:1014F000069202A9704708220021684600F01CB934
:101500001021284600F020BA019101220021039108
:101510000491029201A970470A21009101220192CF
:10152000002102910022039269463046FFF7FCB881
:1015300080B592B03022002106A800F0FDF800F03E
:101540007DF8002000904FF480333A48016841F064
:10155000805101600021006800F0805000900098E8
:1015600035480091026842F440420260012200685E
:1015700000F44040009006A80099069202214FF422
:1015800080020C910D920421B4220E910F9202213F
:10159000042207931091119200F0B0FF08B100F0FF
:1015A00052F801F03BF908B100F04DF80221029128
:1015B0000F204FF4E0510190002204910591039215
:1015C000052101A801F066F908B100F03CF813B05C
:1015D00000BD0000A801002078000020001002409B
:1015E000100000202440014000040240000C024092
:1015F0002C04004018010020D000002060010020D1
:101600000000F03F000049C0005074400000594005
:101610000080624000002840303802400034014021
:10162000000C004020AA440000400140000400409B
:101630000018004040380240007000401422002191
:1016400001A800F079B872B6FEE7000052756E6E20
:10165000696E670048616C74656400004573746F5F
:1016600070706564210000007047704770477047D4
:10167000704770470901020002D42848815470471E
:10168000274B02F00F021A4402F8041C7047254B46
:1016900019684FF6FF020002114000F4E0600843B1
:1016A000214908431860704770B51E4B1C68C4F38D
:1016B00002230124C3F10705052D2EBF0F2504FACF
:1016C00005F56D1E1E1D072E34BF0023DB1E2940AD
:1016D000994004FA03F3BDE870405B1E1A401143C1
:1016E000C8E7010007D4012200F01F010F4B8A4018
:1016F000400943F820207047401EB0F1807F01D39D
:10170000012070470A490B4A48600023F0201070FE
:101710008B600720086000207047000000E400E0B4
:1017200018ED00E00CED00E00000FA0500E100E03B
:1017300010E000E023ED00E010B5044610460A4634
:101740000146204601F036F9204610BD2DE9F84F3C
:101750000D460026DFF8F811DFF8F8210F230446C4
:1017600001202F68B04000EA0708804540F0E08083
:101770004FEA460C032707FA0CF76FEA070E6F686B
:1017800007F00309B9F1010F1CBF07F00307022F8F
:1017900012D1A768D5F80C900EEA070709FA0CF9E0
:1017A00049EA0707A760676827EA00006F68C7F380
:1017B0000017B74038436060B0002F7907F0030787
:1017C000032F21D0E768D5F808900EEA070709FA39
:1017D0000CF949EA0707E7602F7907F00307022FA2
:1017E00012D1F70804EB870700F01C09D7F820A0F6
:1017F00003FA09FB2AEA0B0AD5F810B00BFA09F92B
:1018000049EA0A09C7F8209027680EEA070E2F79DF
:1018100007F0030707FA0CF747EA0E0CC4F800C0FC
:101820006F6817F4403F00F083804FF0000ECDF852
:1018300000E04FEA960C176847F48047176000F005
:101840000C00D2F800E0444F0EF4804ECDF800E0DA
:10185000DDF800E057F82C7003FA00FE27EA0E0EC0
:101860003E4FBC4208BF00272CD03D4FBC4208BFB2
:10187000012727D03B4FBC4208BF022722D03A4F56
:10188000BC4208BF03271DD0384FBC4208BF042705
:1018900018D0374FBC4208BF052713D0354FBC4284
:1018A00008BF06270ED0344FBC4208BF072709D017
:1018B000324FBC4208BF082704D0314FBC420CBF96
:1018C00009270A2707FA00F040EA0E00DFF888E04F
:1018D0004EF82C006FEA0800D1F808C06F6800EAE3
:1018E0000C0CFF0248BF48EA0C0CC1F808C0D1F844
:1018F0000CC06F6800EA0C0CBF0248BF48EA0C0C31
:10190000C1F80CC0D1F804C06F6800EA0C0CBF032A
:1019100048BF48EA0C0CC1F804C0D1F800C000EA86
:101920000C0C6868C00348BF48EA0C0CC1F800C042
:10193000761C0F2E7FF614AFBDE8F18F00690840CA
:1019400018BF0120C0B2704702B909048161704715
:10195000003C014044380240083801400000024089
:101960000004024000080240000C02400010024047
:101970000014024000180240001C024000200240F7
:101980000024024038B5040001D1012032BD606A54
:1019900030B96068B0F5827F05D00021E16102E0D6
:1019A0000020206160610020A06204F15005687889
:1019B00020B9002129702046FFF7C2F90220687083
:1019C00000F008F96068A168E26800F4827001F430
:1019D00004410843217C02F400621043227D01F09F
:1019E00002010843A16902F001021043227F01F4C1
:1019F0000071084394F8201002F038021043A26AE4
:101A000001F080010843216802F40052104308608D
:101A1000A06994F824102268000C00F0040001F082
:101A20001001084350602068C16921F40061C16160
:101A3000002068600121697032BD2DE9F843054638
:101A400005F15007002638780C4691469846012843
:101A500008BF022000F08F800120387000F0DEFF08
:101A60007978012918BF02264DD1002C18BFB9F191
:101A7000000F7DD00321797000237B602C63A5F8D3
:101A80003490A5F836900021A963AB87E9876B6491
:101A90002964AB68B3F5004F09D129680B6823F0BE
:101AA00040030B6029680C6844F480440C6029688A
:101AB0000B685C0603D40B6843F040030B6044469C
:101AC000E968B1F5006F696821D1002918BFB9F143
:101AD000010F00F073F8804604E0296B0A88C260A9
:101AE00000F051F8E88E002833D0286881688A0712
:101AF000F3D400F093FFA0EB0800A04204D314F14C
:101B0000010FEFD0032634E0002CEBD1FAE70029D7
:101B100018BFB9F1010F00F045F8804606E0296BC7
:101B20000A780273286B411C00F02FF8E88E80B110
:101B3000286881688A07F2D400F070FFA0EB0800E3
:101B4000A04203D314F1010FF0D0DBE7002CEDD15C
:101B5000D8E742462146284600F0A2F808B12020E6
:101B60007860A86810B900F015F8009A786800B19C
:101B7000012600F002F8BDE8F28301207870002110
:101B8000397030467047286B811C2963E88E411EEE
:101B9000E9867047002100912968CA680092896827
:101BA0000091704709D1296B2B680A781A73296B49
:101BB0004A1C2A63E98E4A1EEA86704709D1296BBE
:101BC0002B680A88DA60296B8A1C2A63E98E4A1E10
:101BD000EA8670472068016821F040010160704783
:101BE0002DE9F843089C05460E4690461F4600F036
:101BF00015FF381A241800F011FF81463F4801688C
:101C00004901090D6143009105E0009800B90024E5
:101C10000098401E0090286881683140B1420CBF96
:101C200001200020404532D017F1010FF3D000F021
:101C3000F5FEA0EB0900A04201D2002CE5D12868F6
:101C4000416821F0E00141606868B0F5827F08D109
:101C5000A868B0F5004F18BFB0F5806F01D100F053
:101C600019F8A86AB0F5005F09D12868016821F465
:101C7000005101602868026842F40052026005F1D8
:101C800050000121417000220270032000E000207A
:101C9000BDE8F2832868016821F0400101607047C7
:101CA0007CB504461548164E0B4601681825B1FB55
:101CB000F5F5B5FBF6F64FF47A7046430096616889
:101CC000B1F5827F09D10092802100222046FFF7E2
:101CD00087FF58B100F00CF876BD009830B100983D
:101CE000401E0090216888680106F6D4002076BD69
:101CF000606D40F020006065032070470C000020FC
:101D000040420F0038B5044600F088FE14F1010F80
:101D1000054602D004480178641800F07FFE401B9D
:101D2000A042FAD331BD00BF0000002070B491EA98
:101D3000030F4FF0004540F1BF806B40841A71EBF8
:101D4000030604D26E40001BB141121973414FF4D7
:101D5000001C1CEB410F34BF7CEB430683E00C0DF1
:101D6000A4EB1356362E00F37C80012E45EAC323E4
:101D700041DC43EA525312BFD20292025B082405AF
:101D800045EAC12141EA5051D2EBC020994125D406
:101D900007D1B0FA80F610FA06F162D000202036A2
:101DA00008E0B1FA81F6B140C6F1200220FA02F251
:101DB0001143B0404FEAF474B4EB465434F00106DA
:101DC0004FEA74040AD8D6F50016760D04F00044E4
:101DD000F04061FA06F25040F1404840C00A40EA43
:101DE000415021F0004128BF5FEA500550F100004A
:101DF00044EBD12135E0DB0A45EAC121C90AB6F13D
:101E000020050EDD42EA0242120CC5F1200603FA5B
:101E100006F6EB4042EA06056D42984161F1000189
:101E20000DE062FA06F5F240554063FA06FC82EADC
:101E30000C02F3405A406D42904161EB030111F4F2
:101E4000801F05D1641E620502D06D0040414941EA
:101E500021F48011430875F1004350F1000041EB7B
:101E6000045170BC70471CEB410F15D223F00043A6
:101E700052EA43060BD04FEA4C0CBCEB410F04D89E
:101E80000C0D661E342EB7DDEBE7801A994150EA3F
:101E9000410608BF0021E4E708BF1CEB430F28BF41
:101EA0006FF00001DDE7000070B491EA030F4FF01E
:101EB00000457FF543AF6B40841A71EB030603D2F4
:101EC000001BB141121973414FF4001C1CEB410F70
:101ED00034BF7CEB430442E00C0DA4EB1356352ECB
:101EE0004FDC45EAC323DB0A45EAC121C912B6F13A
:101EF00020050DDD63FA05F6EB4086EA0305124284
:101F000018BF45F00105C01851F100010CD213E0D3
:101F100062FA06F5F2405540F3415A40B340F340AF
:101F20005A408018594107D349085FEA30005FEAF8
:101F3000350528BF45F0010501F58011420875F10E
:101F4000004250F1000041EB04514E0016F5001F15
:101F500070BC38BF70470020090D090570471CEBA5
:101F6000410F10D252EA43060BD0BCEB410F05D80B
:101F70000C0DAB43661E342EB6DD02E0AB43801879
:101F8000594170BC704770BC7047000050B1B0FA46
:101F900080F18840C91CC1F58461090501EBD0219D
:101FA0004005704701467047F0B540F2FF7581EA81
:101FB000030C0CF0004C15EA11541DBF15EA135721
:101FC000AC42AF42E5E0BC41C1F31301C3F31303DC
:101FD000801A994143F4801304D2641E00184941C9
:101FE00080185941C90241EA5051B1FBF3F603FB95
:101FF0001611A2FB0675D7EBC020A94102D2761EAE
:1020000080185941C90241EA5051B1FBF3FE03FB6C
:102010001E11A2FB0E75D7EBC020A94103D2AEF171
:10202000010E80185941890241EA9051760546EA2D
:102030008E2EB1FBF3F603FB1611A2FB0675D7EB50
:102040008020A94102D2761E80185941C90241EA76
:1020500050514EEA060EB1FBF3F603FB1611A2FB3C
:102060000675D7EBC020A94102D2761E80185941CF
:10207000C90241EA5051B1FBF3F703FB1711A2FB70
:102080000735D3EBC020A94167F100070CBF004220
:1020900047F0010766F3D5274FEA1E31B80814F55B
:1020A000806412DDBD0775F1004250EB0E5051EB1C
:1020B000045111F5801F5CBF41EA0C01F0BD4CF0EA
:1020C0007F6141F0E0410020F0BDBD076D0840EAAE
:1020D0000E5041F48011D4F10104B4F120060ADA63
:1020E000C4F120060200E04001FA06F3E140184383
:1020F000B24015430EE0342C13DCC6F1200445EA4F
:1021000040056D0820FA06F2154321FA06F0A140B9
:102110000D43002175F1004250F1000051EB0C011C
:10212000F0BD00205FEA0C01F0BDCFB992185B4111
:10213000B3FA83F704BFB2FA82F6BF190B3FB7F1C7
:1021400020062FBF02FA06F3BB40C7F1200622FA91
:1021500006F638BF3343BA401CB1E419641E33E7B6
:102160007F4231F00041B1FA81F404BFB0FA80F649
:10217000A4190B3CB4F120062FBF00FA06F1A140D0
:10218000C4F1200620FA06F638BF3143A0403C1BBC
:102190001AE7AC421ABF05EA1357AF4212E050EA01
:1021A00041061CBF52EA4306BFE750EA41073046EA
:1021B00061461CBF41EA0551F0BD52EA430C08BF1D
:1021C000C143F0BD00204FF4001616EB410F98BF3D
:1021D00016EB430F08BF16EB410F24BFC14305E0C8
:1021E00016EB430F0CBF61464CEA0551F0BD0000F1
:1021F00030B540F2FF7C1CEA11541DBF1CEA135598
:10220000644565453FE0641981EA030C6FF35F5351
:102210000CF0004C43F48013C90241F0004141EA44
:10222000505EC5021100A5FB020200284FF000001D
:10223000EEFB01204FF00001E3FB052118BF42F047
:102240000102401800214941E3FB0E01A4F580641E
:102250000D0302D292184041494154F1010470DD4E
:10226000450872F1004250F1000051EB0451A1F514
:10227000801102D441EA0C0130BD40F2FF7E4CEAED
:102280000E51002030BD0CEA1355644518BF65455A
:1022900081EA030C0CF0004C41D050EA410E1CBF07
:1022A00052EA430E02E06146002030BD24422C4435
:1022B0001BD15FEA050EF6D0090302BF01460020DC
:1022C000AEF1140EB1FA81F5AEEB050401FA05FE8C
:1022D0000C35C5F1200100FA05F5C8404EEA000EA4
:1022E0006FF35F5343F480139CE733F00043B3FA7A
:1022F00083F504BFB2FA82FE75440B3D641BB5F151
:10230000200E2FBF02FA0EF3AB40C5F1200E22FAC9
:102310000EFE38BF43EA0E03AA40641C7CE750EA75
:10232000410E14BF52EA430E6FF000014FF4001546
:1023300015EB430F8EBF194615EB410F9DE7B4D83F
:1023400030BDD4F10104B4F120050FDAC4F1200549
:10235000520828BF42F0010210FA05FE01FA05F505
:102360007244E2BFE0402843E1400FE0352C9ADCA4
:10237000C5F1200452EA400220FA05F218BF42F0EB
:10238000010231FA05F0A1400A43002172F1004236
:1023900050F1000051EB0C0130BD0000C1F30A53B5
:1023A00040F21E42D31A0CDDCA0283F3070342EA4D
:1023B000505242F00042DA4002EBE17282EAE170F0
:1023C00070476FEAE17203F2E13008B182F0004039
:1023D0007047000041EA030C50EA4C0C52EA0C0C26
:1023E0004FF4001C09D307D01CEB410F9CBF1CEB22
:1023F000430F8B4208BF824270471CEB430FFBD850
:10240000994208BF9042704741EA030C50EA4C0CD5
:1024100052EA0C0C4FF4001C09D307D01CEB410FFF
:102420009CBF1CEB430F994208BF904270471CEBC6
:10243000410FFBD88B4208BF8242704780B50B48E2
:10244000016841F400710160026842F48062026038
:10245000016841F4807101600320FFF718F90F2033
:1024600000F0E2FAFEF752FC002002BD003C024000
:1024700070B500F13C031A78012A01D1022070BD29
:1024800001221A7002245C7005686E68AC680A68E4
:1024900026F0700616436E6002681148824218BF2B
:1024A000B2F1804F11D0114882421CBF104DAA4298
:1024B0000BD00D4882421CBF0E4DAA4205D00948E0
:1024C00082421CBF0C4DAA4204D1486824F080040B
:1024D00004439460012159700020187070BD000001
:1024E0000000014000400140000C0040000400409A
:1024F0000008004000040140001800402DE9F843A6
:10250000040016D02078DFF80463C10713D5B06843
:1025100000F00C00042807D0B06800F00C00082878
:102520003DD1706841023AD53068810303D56068B7
:10253000002800F065812078B54F810719D5B06873
:1025400010F00C0F07D0B06800F00C0008285BD129
:102550007068410258D43068810703D5E0680128CB
:1025600040F04E813168206921F0F80141EAC00154
:1025700031602178080779D56069A649002868D0BC
:1025800001220A6000F04AFA0546706F81076DD497
:1025900000F044FA401B0228F7D9032033E16068B9
:1025A000B0F5803F04D1306840F48030306011E0F5
:1025B000B0F5A02F306806D140F48020306031683B
:1025C00041F4803105E020F480303060316821F43E
:1025D00080213160606858B100F020FA054630680B
:1025E0008103A8D400F01AFA401B6528F7D3D4E77A
:1025F00000F014FA0546306881039CD500F00EFA0D
:10260000401B6528F7D3C8E7E068A8B1012139600D
:1026100000F004FA05463068810705D400F0FEF9A1
:10262000401B0228F7D9B8E73068216920F0F8008C
:1026300040EAC10030609CE7386000F0EFF90546E1
:102640003168880795D500F0E9F9401B0228F7D9D1
:10265000A3E7086000F0E2F90546706F810705D531
:1026600000F0DCF9401B0228F7D996E720784107F3
:1026700060D5306C0025C1000BD4002000900125EE
:10268000316C41F080513164306C00F0805000902A
:102690000098DFF88481D8F80000C10513D4D8F879
:1026A000000040F48070C8F8000000F0B7F98146DF
:1026B000D8F80000C10506D400F0B0F9A0EB09007D
:1026C0000228F5D969E7A068012805D00528306FF0
:1026D00006D140F004003067306F40F0010005E0A3
:1026E000400840003067306F20F00400306741F24E
:1026F0008938A06860B100F091F98146306F810798
:1027000013D400F08BF9A0EB09004045F6D344E761
:1027100000F084F98146306F810706D500F07EF91C
:10272000A0EB09004045F6D337E71DB1306C20F02F
:1027300080503064A069002864D0B16801F00C01B9
:1027400008293AD002282AD10020386600F066F91C
:1027500005463068810105D500F060F9401B02286C
:10276000F7D91AE7E069216A626A0843A16A490851
:1027700040EA8210491E40EA0140E16A40EA0160F5
:1027800070600120386600F049F904463068810124
:1027900038D400F043F9001B0228F7D9FDE60020E9
:1027A000386600F03BF90446306881012AD500F014
:1027B00035F9001B0228F7D9EFE6012820D0706810
:1027C000E26900F48001914202BF00F03F01226AF9
:1027D000914201BF47F6C0710140626AB1EB821FAE
:1027E0000ED1A26A00F4403101F580315208B1EBFC
:1027F000024F02BF00F07060E16AB0EB016F01D0E0
:10280000012000E00020BDE8F28300BF0038024054
:1028100000004742800E474200700040F8B500F0CB
:1028200027F8012100F01EF8316000F0F7F80746A4
:102830002868C10306D400F0F1F8C01BA042F7D30A
:102840000320F2BD0120706000F0E8F80646286819
:10285000810305D400F0E2F8801BA042F7D3EFE734
:102860000020F2BD006800F0805000900098704792
:102870000020009040F2E9340448054E0168024D02
:1028800041F08051016070470470004040380240C0
:1028900040000E422DE9F04104000F4654D0404E56
:1028A000306800F00F00B84202D200F073F84BD14C
:1028B00020683C4D810712D5400703D5A96841F433
:1028C000E051A9602078010703D5A86840F4604072
:1028D000A860A968A06821F0F0010143A9602178EF
:1028E000C80729D56068012802D129688A0305E054
:1028F000022818BF032803D129688A0103D423E0E2
:1029000029688A0720D5A968890840EA8100A8605B
:1029100000F084F88046A868616800F00C00B0EB15
:10292000810F09D000F07AF8A0EB080041F289315C
:102930008842F0D303202BE0306800F00F0087427C
:1029400004D200F027F801D0012021E020784107CF
:1029500005D5AA68E06822F4E0520243AA60217813
:10296000080706D5A968206921F4604141EAC00141
:10297000A96000F079F8AA680B490C4BC2F3031266
:10298000895CC84018600A48006800F04DF80020D3
:10299000BDE8F0813770316801F00F01B94270472E
:1029A000003C024000380240D82C00080C000020F7
:1029B0000800002062F30F2262F31F42401810F05B
:1029C000030308D0C91A1FD3DB0748BF00F8012D45
:1029D00028BF20F8022D130030B4144615461039D4
:1029E00028BF20E93C00FAD8490728BF20E90C009D
:1029F00048BF40F8042D890028BF20F8022D48BFA9
:102A000000F8012D30BC7047C91818BF00F8012D1F
:102A1000CB0728BF00F8012D70470000014840682F
:102A2000704700BF0000002038B50D4D0D4B2A78CF
:102A300004464FF47A711868B1FBF2F2B0FBF2F081
:102A4000FEF75AFE50B9102C08D2002221464FF052
:102A5000FF30FEF729FEAC60002032BD012032BD00
:102A6000000000200C00002030B5144C606800F01D
:102A70000C00042802D0082802D01DE0104830BD08
:102A8000226820680023410202F03F0204D5256835
:102A90000B49C5F3881003E020680A49C0F3881089
:102AA000A1FB000100F010F82168C1F30141491CAD
:102AB0004900B0FBF1F030BD024830BD043802409F
:102AC00000127A000024F400D3BBD9B1B2F5803FE4
:102AD0005BD2022A1ED98C46B1FBF2F102FB11C374
:102AE0001B0443EA1043B3FBF2FC02FB1C3380B22D
:102AF00040EA0343B3FBF2F002FB103240EA0C4021
:102B000000237047022A05D98446B0FBF2F002FB8D
:102B100010C270474AB105D100F0010249085FEACE
:102B20003000704700220023704700F051B80B00BE
:102B30000200002100207047F7D3002200237047D5
:102B4000904271EB030CF2D370B5B1FA81F4B3FA91
:102B500083F52C1BA340C4F1200532FA05F633435C
:102B6000A2405FF00046E64002E05B085FEA320206
:102B7000841A71EB030524BF204629467641F4D31D
:102B800002000B003000002170BD70B5B1FA81F475
:102B9000B2FA82F5C4F120046419B4F12006DAD344
:102BA000B2405FF00044F440002502E052085FEAC2
:102BB0003303C61A71EB020E24BF304671466441DE
:102BC0006D41F3D302000B002000290070BD00000E
:102BD00070470000FEE7FEE7FEE7FEE7FEE770470E
:102BE0007047704700F014B80548FDF7F9BC054878
:102BF000FDF7F6BC0448FDF7F3BC0448FDF7F0BC54
:102C0000180100201000002060010020D0000020EA
:102C10000248416802788A1842607047000000202C
:102C200030B4002512E050F8042BD30744BF4A44C7
:102C3000521E091F042942F8045BFAD213468C077E
:102C400044BF15809B1CC90748BF1D7050F8041B6A
:102C50000029E8D130BC704710B5074979441831D4
:102C6000064C7C44163404E00A68081D1144884769
:102C70000146A142F8D110BD2C0000004C0000001C
:102C80004EF68851CEF20001086840F470000860EA
:102C9000BFF34F8FBFF36F8F4FF00170E1EE100A5B
:102CA000704700007DFFFFFF9C0100001000002026
:102CB000000000002FE0FFFF10000000A000000057
:102CC00000000020000000000248016841F470018B
:102CD0000160704788ED00E0000000000000000087
:102CE000010203040607080900F00DF8002801D0CE
:102CF000FFF7B2FFAFF300800020AFF30080FEF7D4
:102D00009FFA00F002F80120704700F001B80000BF
:102D10000746384600F002F8FBE7000080B5AFF345
:102D20000080024A11001820ABBEFBE7260002001B
:102D30000548014603B4684680F30988AFF3008074
:102D4000FFF79EFFFFF7D0FFA5EDF5FE0148804796
:102D500001480047C92C0008312D0008010000007F
:102D600000000000100000000024F400FFF7FEBF88
:102D7000FFF7FEBFFFF7FEBFFFF7FEBFFFF7FEBF87
:102D8000FFF7FEBFFFF7FEBFFFF7FEBFFFF7FEBF77
:102D9000FFF7FEBFFFF7FEBFFFF7FEBFFFF7FEBF67
:102DA000FFF7FEBFFFF7FEBFFFF7FEBFFFF7FEBF57
:102DB000FFF7FEBFFFF7FEBFFFF7FEBFFFF7FEBF47
:102DC000FFF7FEBFFFF7FEBFFFF7FEBFFFF7FEBF37
:102DD000FFF7FEBFFFF7FEBFFFF7FEBFFFF7FEBF27
:102DE000FFF7FEBFFFF7FEBFFFF7FEBFFFF7FEBF17
:102DF000FFF7FEBFFFF7FEBFFFF7FEBFFFF7FEBF07
:102E0000FFF7FEBFFFF7FEBFFFF7FEBFFFF7FEBFF6
:102E1000FFF7FEBFFFF7FEBFFFF7FEBFFFF7FEBFE6
:102E2000FFF7FEBFFFF7FEBFFFF7FEBFFFF7FEBFD6
:102E3000FFF7FEBFFFF7FEBFFFF7FEBFFFF7FEBFC6
:102E4000FFF7FEBFFFF7FEBFFFF7FEBFFFF7FEBFB6
:102E5000FFF7FEBFFFF7FEBFFFF7FEBFFFF7FEBFA6
:102E6000FFF7FEBFFFF7FEBFFFF7FEBFFFF7FEBF96
:102E7000FFF7FEBFFFF7FEBFFFF7FEBFFFF7FEBF86
:102E8000FFF7FEBFFFF7FEBFFFF7FEBFFFF7FEBF76
:102E9000FFF7FEBFFFF7FEBFFFF7FEBFFFF7FEBF66
:102EA000FFF7FEBFFFF7FEBFFFF7FEBFFFF7FEBF56
:102EB000FFF7FEBFFFF7FEBFFFF7FEBFFFF7FEBF46
:042EC000FFF7FEBF5B
:0400000508002D3191
:00000001FF
